:100000000C9434000C9451000C9451000C94510049
:100010000C9451000C9451000C9451000C9451001C
:100020000C9451000C9451000C9451000C9451000C
:100030000C9451000C9451000C9451000C945100FC
:100040000C9451000C9451000C9451000C945100EC
:100050000C9451000C9451000C9451000C945100DC
:100060000C9451000C94510011241FBECFEFD8E026
:10007000DEBFCDBF11E0A0E0B1E0E2E0F6E002C0FB
:1000800005900D92AE30B107D9F721E0AEE0B1E0B6
:1000900001C01D92A033B207E1F70E9498010C94B1
:1000A000FF020C9400000F931F93CF938B019C01D0
:1000B000C42F87B18F7C87B9443079F018F4413070
:1000C00031F023C0403191F04034C9F01EC0E9EB5B
:1000D000F0E080818C7F80831EC0E9EBF0E08081BE
:1000E0008D7F808380818160808315C0E9EBF0E0A3
:1000F00080818E7F80838081826080830CC0E9EB69
:10010000F0E080818360808306C0E9EBF0E08081CD
:100110008C7F8083C1E060E074E284EF90E0A9010D
:1001200098010E949D02CA01B901605171098109BB
:1001300091094C2F50E09A01220F331F032E000C1F
:10014000440B550B0E949D022093B800ECEBF0E0AD
:10015000808184608083CF911F910F91089584EAFC
:100160008093BC008091BC008823E4F7089584E963
:100170008093BC0008958093BB0084E88093BC000A
:100180008091BC008823E4F785B18F7E85B980918A
:10019000B900887F883131F0883231F0803429F419
:1001A00081E0089581E0089581E0089580FF04C012
:1001B0009BB190619BB903C09BB19F7E9BB981FFAE
:1001C00004C09BB190629BB903C09BB19F7D9BB95A
:1001D00082FF04C09BB190649BB903C09BB19F7B1D
:1001E0009BB983FF04C09BB190689BB903C09BB1CE
:1001F0009F779BB984FF04C095B1916095B903C006
:1002000095B19E7F95B985FF04C095B1926095B96F
:1002100003C095B19D7F95B986FF04C095B19460E8
:1002200095B903C095B19B7F95B9882324F485B116
:10023000886085B9089585B1877F85B908959BB198
:100240009B7F9BB90E94D6008BB188608BB98FE7EA
:100250009EE30197F1F700C000008BB1877F8BB957
:1002600008958AB18C6F8AB984B18F6084B915B84A
:100270001BB880E00E94D6002FEF89EF90E021505C
:1002800080409040E1F700C0000088E30E941F0119
:100290008FE891E00197F1F700C000008CE00E9428
:1002A0001F018FE891E00197F1F700C0000086E0A0
:1002B0000E941F018FE891E00197F1F700C0000054
:1002C00081E00E941F0108959BB194609BB90E9438
:1002D000D6008BB188608BB98FE79EE30197F1F769
:1002E00000C000008BB1877F8BB908950F931F93D7
:1002F000CF93DF938C01C0E0D0E003C00E94640183
:100300002196F801EC0FFD1F80818111F7CFDF915D
:10031000CF911F910F910895613021F480580E9470
:100320001F010895623019F480540E941F0108953E
:10033000CF93DF93CDB7DEB72F970FB6F894DEBF1C
:100340000FBECDBFF89441E060EA76E881E090E02E
:100350000E9453000E94310184B1806184B9789475
:1003600061E081E00E948C0180E091E00E947601D2
:1003700061E088E00E948C0184E091E00E947601B7
:1003800085B1806185B90E94AF0081E2809315013B
:100390000E94BB0080931601813031F00E94B700AB
:1003A00085B18F7E85B910C084E88093BC008091B0
:1003B000BC008823E4F78091BB0080930F010E946A
:1003C000B70085B18F7E85B90E94AF0081E480932C
:1003D00015010E94BB0080931601813019F00E9424
:1003E000B7000DC084E88093BC008091BC008823D6
:1003F000E4F78091BB0080930E010E94B70062E099
:1004000080E00E948C0180E290E09A838983809151
:100410000F018A30E0F44AE067E171E090E00E9469
:10042000CA029093130180931201BC018E010F5FE9
:100430001F4FC8010E94BF02F80101900020E9F798
:10044000319780E290E29183808312822CC08436BF
:10045000D8F44AE06CE171E090E00E94CA02909307
:10046000130180931201BC018E010F5F1F4FC80161
:100470000E94BF02F80101900020E9F7319780E265
:1004800090E0918380830FC04AE061E271E090E0E8
:100490000E94CA029093130180931201BC01CE0105
:1004A00001960E94BF02DE0111960D900020E9F72F
:1004B000119785E0E8E0F1E001900D928A95E1F76F
:1004C00080910E018A30D8F44AE066E271E090E053
:1004D0000E94CA029093110180931001BC018E0109
:1004E0000F5F1F4FC8010E94BF02F801019000205A
:1004F000E9F7319780E290E0918380830FC04AE072
:100500006BE271E090E00E94CA0290931101809327
:100510001001BC01CE0101960E94BF02CE010196DE
:100520000E947601109217011092210110921C0175
:1005300010922B011092260123CFA1E21A2EAA1BA2
:10054000BB1BFD010DC0AA1FBB1FEE1FFF1FA21783
:10055000B307E407F50720F0A21BB30BE40BF50B80
:10056000661F771F881F991F1A9469F76095709509
:10057000809590959B01AC01BD01CF010895FB01D1
:10058000DC010D900020E9F7119701900D920020F9
:10059000E1F70895BB274A3031F4992322F4BDE2F4
:1005A000909581959F4F0C94D602BB27FB01552750
:1005B000AA27880F991FAA1FA41710F0A41B8395C0
:1005C0005051B9F7A05DAA3308F0A95DA193009737
:1005D00079F7B111B1931192CB010C94EF02DC01C8
:1005E000FC01672F71917723E1F7329704C07C916A
:1005F0006D9370836291AE17BF07C8F30895F894A6
:02060000FFCF2A
:0E06020053313A0053323A00202020200000ED
:00000001FF
