:100000000C9434000C9446000C9446000C9446006A
:100010000C9446000C9446000C9446000C94460048
:100020000C9446000C9446000C9446000C94460038
:100030000C9446000C9446000C9446000C94460028
:100040000C9446000C9446000C9446000C94460018
:100050000C9446000C9479000C9446000C944600D5
:100060000C949B000C94460011241FBECFEFD8E0E7
:10007000DEBFCDBF21E0A0E0B1E001C01D92A23003
:10008000B207E1F70E9476000C94DA000C940000AD
:1000900097B19F7C97B9880F8093BA0085E48093CD
:1000A000BC000895ECE7F0E01082808180648083DA
:1000B000808180628083EAE7F0E01082808180683E
:1000C00080838081886080838081876080831092B4
:1000D0007B008081806480830895F89417B880E164
:1000E0000E9448000E945200789408950E946D007A
:1000F000FFCF1F920F920FB60F9211248F93EF93A1
:10010000FF93EAE7F0E080818F7780838091790028
:1001100080930001808180688083808180648083F7
:10012000808180618083FF91EF918F910F900FBE4E
:100130000F901F9018951F920F920FB60F921124D7
:100140008F93EF93FF938091B9008C7F803899F063
:1001500028F4803651F0803741F01FC0883AA9F06A
:10016000883B99F08039C9F406C0ECEBF0E080815F
:100170008068808317C08091BB0080930101ECEB05
:10018000F0E08081806880830DC0809100018093C1
:10019000BB0085EC8093BC0005C0ECEBF0E08081F7
:1001A00080698083FF91EF918F910F900FBE0F9028
:0801B0001F901895F894FFCF91
:00000001FF
