S015000044325F4C6162345F535F426F742E73726563C1
S11300000C9434000C9451000C9451000C94510045
S11300100C947F000C9451000C9451000C945100EA
S11300200C9451000C9451000C9451000C94510008
S11300300C9451000C9451000C9451000C945100F8
S11300400C9451000C9451000C9451000C945100E8
S11300500C9451000C9451000C9451000C945100D8
S11300600C94B5000C94510011241FBECFEFD8E0BE
S1130070DEBFCDBF11E0A0E0B1E0ECEEF1E002C0E4
S113008005900D92A230B107D9F721E0A2E0B1E0CA
S113009001C01D92A530B207E1F70E9471000C94D3
S11300A0F4000C94000097B19F7C97B9880F80935B
S11300B0BA0085E48093BC000895F8948AB1806FF7
S11300C08AB9ECE6F0E0808183608083E8E6F0E0C2
S11300D080818260808317B880E20E945300789404
S11300E008950E945D002BB19091000130E1939F2F
S11300F0C0011124922F9F70892B8BB9F4CF1F92CA
S11301000F920FB60F9211248F93309911C08091E2
S11301100301811109C080910001882329F0809195
S1130120000181508093000181E08093030102C0AB
S113013010920301319911C080910401811109C009
S1130140809100018F3028F4809100018F5F8093AB
S1130150000181E08093040102C0109204018F9198
S11301600F900FBE0F901F9018951F920F920FB60D
S11301700F9211248F93EF93FF938091B9008C7F9A
S1130180803899F028F4803651F0803741F01FC050
S1130190883AA9F0883B99F08039C9F406C0ECEBA1
S11301A0F0E080818068808317C08091BB008093D9
S11301B00201ECEBF0E08081806880830DC08091C7
S11301C000018093BB0085EC8093BC0005C0ECEB80
S11301D0F0E0808180698083FF91EF918F910F908F
S10F01E00FBE0F901F901895F894FFCFED
S10501EC0F00FE
S9030000FC
